{
    "contractName": "fightGame",
    "abi": [
        {
            "inputs": [],
            "payable": false,
            "stateMutability": "nonpayable",
            "type": "constructor"
        },
        {
            "constant": true,
            "inputs": [],
            "name": "owner",
            "outputs": [
                {
                    "internalType": "address",
                    "name": "",
                    "type": "address"
                }
            ],
            "payable": false,
            "stateMutability": "view",
            "type": "function"
        },
        {
            "constant": true,
            "inputs": [
                {
                    "internalType": "uint256",
                    "name": "",
                    "type": "uint256"
                }
            ],
            "name": "players_adresses",
            "outputs": [
                {
                    "internalType": "address",
                    "name": "",
                    "type": "address"
                }
            ],
            "payable": false,
            "stateMutability": "view",
            "type": "function"
        },
        {
            "constant": false,
            "inputs": [
                {
                    "internalType": "string",
                    "name": "_name",
                    "type": "string"
                }
            ],
            "name": "CreatePlayer",
            "outputs": [],
            "payable": false,
            "stateMutability": "nonpayable",
            "type": "function"
        },
        {
            "constant": true,
            "inputs": [],
            "name": "GetPlayer",
            "outputs": [
                {
                    "internalType": "string",
                    "name": "name",
                    "type": "string"
                },
                {
                    "internalType": "uint8",
                    "name": "level",
                    "type": "uint8"
                },
                {
                    "internalType": "uint8",
                    "name": "exp",
                    "type": "uint8"
                },
                {
                    "internalType": "uint8",
                    "name": "strength",
                    "type": "uint8"
                },
                {
                    "internalType": "uint8",
                    "name": "pv",
                    "type": "uint8"
                }
            ],
            "payable": false,
            "stateMutability": "view",
            "type": "function"
        },
        {
            "constant": true,
            "inputs": [],
            "name": "GetPlayerStats",
            "outputs": [
                {
                    "internalType": "uint8",
                    "name": "wins",
                    "type": "uint8"
                },
                {
                    "internalType": "uint8",
                    "name": "loses",
                    "type": "uint8"
                }
            ],
            "payable": false,
            "stateMutability": "view",
            "type": "function"
        },
        {
            "constant": true,
            "inputs": [],
            "name": "GetAllPlayers",
            "outputs": [
                {
                    "internalType": "address[]",
                    "name": "",
                    "type": "address[]"
                }
            ],
            "payable": false,
            "stateMutability": "view",
            "type": "function"
        },
        {
            "constant": false,
            "inputs": [],
            "name": "Fight",
            "outputs": [
                {
                    "internalType": "string",
                    "name": "_name",
                    "type": "string"
                },
                {
                    "internalType": "uint256",
                    "name": "exp",
                    "type": "uint256"
                },
                {
                    "internalType": "uint256",
                    "name": "level",
                    "type": "uint256"
                }
            ],
            "payable": false,
            "stateMutability": "nonpayable",
            "type": "function"
        },
        {
            "constant": false,
            "inputs": [
                {
                    "internalType": "address",
                    "name": "a",
                    "type": "address"
                }
            ],
            "name": "ResetPlayer",
            "outputs": [
                {
                    "internalType": "bool",
                    "name": "",
                    "type": "bool"
                }
            ],
            "payable": false,
            "stateMutability": "nonpayable",
            "type": "function"
        }
    ],
    "bytecode": "0x608060405234801561001057600080fd5b5033600260006101000a81548173ffffffffffffffffffffffffffffffffffffffff021916908373ffffffffffffffffffffffffffffffffffffffff160217905550611671806100616000396000f3fe608060405234801561001057600080fd5b50600436106100885760003560e01c806399dd5d4e1161005b57806399dd5d4e14610235578063ccf580c5146102f0578063dc4b5b3b1461034c578063e3f1951e1461040357610088565b806334713e4e1461008d5780636052e9aa146100ec5780638da5cb5b1461015a57806395ff2e7c146101a4575b600080fd5b610095610434565b6040518080602001828103825283818151815260200191508051906020019060200280838360005b838110156100d85780820151818401526020810190506100bd565b505050509050019250505060405180910390f35b6101186004803603602081101561010257600080fd5b81019080803590602001909291905050506104c2565b604051808273ffffffffffffffffffffffffffffffffffffffff1673ffffffffffffffffffffffffffffffffffffffff16815260200191505060405180910390f35b6101626104fe565b604051808273ffffffffffffffffffffffffffffffffffffffff1673ffffffffffffffffffffffffffffffffffffffff16815260200191505060405180910390f35b6101ac610524565b6040518080602001848152602001838152602001828103825285818151815260200191508051906020019080838360005b838110156101f85780820151818401526020810190506101dd565b50505050905090810190601f1680156102255780820380516001836020036101000a031916815260200191505b5094505050505060405180910390f35b6102ee6004803603602081101561024b57600080fd5b810190808035906020019064010000000081111561026857600080fd5b82018360208201111561027a57600080fd5b8035906020019184600183028401116401000000008311171561029c57600080fd5b91908080601f016020809104026020016040519081016040528093929190818152602001838380828437600081840152601f19601f820116905080830192505050505050509192919290505050610be0565b005b6103326004803603602081101561030657600080fd5b81019080803573ffffffffffffffffffffffffffffffffffffffff169060200190929190505050610de2565b604051808215151515815260200191505060405180910390f35b610354611174565b60405180806020018660ff1660ff1681526020018560ff1660ff1681526020018460ff1660ff1681526020018360ff1660ff168152602001828103825287818151815260200191508051906020019080838360005b838110156103c45780820151818401526020810190506103a9565b50505050905090810190601f1680156103f15780820380516001836020036101000a031916815260200191505b50965050505050505060405180910390f35b61040b6113a6565b604051808360ff1660ff1681526020018260ff1660ff1681526020019250505060405180910390f35b606060018054806020026020016040519081016040528092919081815260200182805480156104b857602002820191906000526020600020905b8160009054906101000a900473ffffffffffffffffffffffffffffffffffffffff1673ffffffffffffffffffffffffffffffffffffffff168152602001906001019080831161046e575b5050505050905090565b600181815481106104cf57fe5b906000526020600020016000915054906101000a900473ffffffffffffffffffffffffffffffffffffffff1681565b600260009054906101000a900473ffffffffffffffffffffffffffffffffffffffff1681565b606060008060008060003373ffffffffffffffffffffffffffffffffffffffff1673ffffffffffffffffffffffffffffffffffffffff168152602001908152602001600020905060018080549050116105e5576040517f08c379a000000000000000000000000000000000000000000000000000000000815260040180806020018281038252601c8152602001807f496c206e277920612070617320617373657a206465206a6f756575720000000081525060200191505060405180910390fd5b60006001805490506105f561144f565b816105fc57fe5b06905060008060006001848154811061061157fe5b9060005260206000200160009054906101000a900473ffffffffffffffffffffffffffffffffffffffff1673ffffffffffffffffffffffffffffffffffffffff1673ffffffffffffffffffffffffffffffffffffffff16815260200190815260200160002090503373ffffffffffffffffffffffffffffffffffffffff166001838154811061069c57fe5b9060005260206000200160009054906101000a900473ffffffffffffffffffffffffffffffffffffffff1673ffffffffffffffffffffffffffffffffffffffff161415610751576040517f08c379a00000000000000000000000000000000000000000000000000000000081526004018080602001828103825260148152602001807f417563756e206a6f756575722074726f7576c3a900000000000000000000000081525060200191505060405180910390fd5b6000803373ffffffffffffffffffffffffffffffffffffffff1673ffffffffffffffffffffffffffffffffffffffff16815260200190815260200160002060010160029054906101000a900460ff1660ff16600080600185815481106107b357fe5b9060005260206000200160009054906101000a900473ffffffffffffffffffffffffffffffffffffffff1673ffffffffffffffffffffffffffffffffffffffff1673ffffffffffffffffffffffffffffffffffffffff16815260200190815260200160002060010160029054906101000a900460ff1660ff16106108ed576000806001848154811061084157fe5b9060005260206000200160009054906101000a900473ffffffffffffffffffffffffffffffffffffffff1673ffffffffffffffffffffffffffffffffffffffff1673ffffffffffffffffffffffffffffffffffffffff16815260200190815260200160002092506000803373ffffffffffffffffffffffffffffffffffffffff1673ffffffffffffffffffffffffffffffffffffffff16815260200190815260200160002090506109bc565b600060026108f961144f565b8161090057fe5b0690506000806001838154811061091357fe5b9060005260206000200160009054906101000a900473ffffffffffffffffffffffffffffffffffffffff1673ffffffffffffffffffffffffffffffffffffffff1673ffffffffffffffffffffffffffffffffffffffff16815260200190815260200160002093506000803373ffffffffffffffffffffffffffffffffffffffff1673ffffffffffffffffffffffffffffffffffffffff1681526020019081526020016000209150505b60058360010160019054906101000a900460ff16018360010160016101000a81548160ff021916908360ff1602179055508260010160009054906101000a900460ff16600a0260ff168360010160019054906101000a900460ff1660ff1610610aa05760018360010160009054906101000a900460ff16018360010160006101000a81548160ff021916908360ff16021790555060018360010160029054906101000a900460ff16018360010160026101000a81548160ff021916908360ff16021790555060008360010160016101000a81548160ff021916908360ff1602179055505b60018360010160049054906101000a900460ff16018360010160046101000a81548160ff021916908360ff16021790555060018160010160059054906101000a900460ff16018160010160056101000a81548160ff021916908360ff160217905550826000018360010160019054906101000a900460ff168460010160009054906101000a900460ff16828054600181600116156101000203166002900480601f016020809104026020016040519081016040528092919081815260200182805460018160011615610100020316600290048015610bbf5780601f10610b9457610100808354040283529160200191610bbf565b820191906000526020600020905b815481529060010190602001808311610ba257829003601f168201915b505050505092508160ff1691508060ff169050955095509550505050909192565b604051806101000160405280828152602001600160ff168152602001600060ff168152602001600060ff168152602001606460ff168152602001600060ff168152602001600060ff168152602001600115158152506000803373ffffffffffffffffffffffffffffffffffffffff1673ffffffffffffffffffffffffffffffffffffffff1681526020019081526020016000206000820151816000019080519060200190610c8f9291906114f1565b5060208201518160010160006101000a81548160ff021916908360ff16021790555060408201518160010160016101000a81548160ff021916908360ff16021790555060608201518160010160026101000a81548160ff021916908360ff16021790555060808201518160010160036101000a81548160ff021916908360ff16021790555060a08201518160010160046101000a81548160ff021916908360ff16021790555060c08201518160010160056101000a81548160ff021916908360ff16021790555060e08201518160010160066101000a81548160ff02191690831515021790555090505060013390806001815401808255809150509060018203906000526020600020016000909192909190916101000a81548173ffffffffffffffffffffffffffffffffffffffff021916908373ffffffffffffffffffffffffffffffffffffffff1602179055505050565b6000600260009054906101000a900473ffffffffffffffffffffffffffffffffffffffff1673ffffffffffffffffffffffffffffffffffffffff163373ffffffffffffffffffffffffffffffffffffffff1614610e8a576040517f08c379a00000000000000000000000000000000000000000000000000000000081526004018080602001828103825260268152602001806116176026913960400191505060405180910390fd5b604051806020016040528060008152506000808473ffffffffffffffffffffffffffffffffffffffff1673ffffffffffffffffffffffffffffffffffffffff1681526020019081526020016000206000019080519060200190610eee929190611571565b5060008060008473ffffffffffffffffffffffffffffffffffffffff1673ffffffffffffffffffffffffffffffffffffffff16815260200190815260200160002060010160006101000a81548160ff021916908360ff16021790555060008060008473ffffffffffffffffffffffffffffffffffffffff1673ffffffffffffffffffffffffffffffffffffffff16815260200190815260200160002060010160016101000a81548160ff021916908360ff16021790555060008060008473ffffffffffffffffffffffffffffffffffffffff1673ffffffffffffffffffffffffffffffffffffffff16815260200190815260200160002060010160026101000a81548160ff021916908360ff16021790555060008060008473ffffffffffffffffffffffffffffffffffffffff1673ffffffffffffffffffffffffffffffffffffffff16815260200190815260200160002060010160036101000a81548160ff021916908360ff16021790555060008060008473ffffffffffffffffffffffffffffffffffffffff1673ffffffffffffffffffffffffffffffffffffffff16815260200190815260200160002060010160046101000a81548160ff021916908360ff16021790555060008060008473ffffffffffffffffffffffffffffffffffffffff1673ffffffffffffffffffffffffffffffffffffffff16815260200190815260200160002060010160056101000a81548160ff021916908360ff16021790555060008060008473ffffffffffffffffffffffffffffffffffffffff1673ffffffffffffffffffffffffffffffffffffffff16815260200190815260200160002060010160066101000a81548160ff02191690831515021790555060019050919050565b60606000806000806000803373ffffffffffffffffffffffffffffffffffffffff1673ffffffffffffffffffffffffffffffffffffffff1681526020019081526020016000206000016000803373ffffffffffffffffffffffffffffffffffffffff1673ffffffffffffffffffffffffffffffffffffffff16815260200190815260200160002060010160009054906101000a900460ff166000803373ffffffffffffffffffffffffffffffffffffffff1673ffffffffffffffffffffffffffffffffffffffff16815260200190815260200160002060010160019054906101000a900460ff166000803373ffffffffffffffffffffffffffffffffffffffff1673ffffffffffffffffffffffffffffffffffffffff16815260200190815260200160002060010160029054906101000a900460ff166000803373ffffffffffffffffffffffffffffffffffffffff1673ffffffffffffffffffffffffffffffffffffffff16815260200190815260200160002060010160039054906101000a900460ff16848054600181600116156101000203166002900480601f01602080910402602001604051908101604052809291908181526020018280546001816001161561010002031660029004801561138e5780601f106113635761010080835404028352916020019161138e565b820191906000526020600020905b81548152906001019060200180831161137157829003601f168201915b50505050509450945094509450945094509091929394565b6000806000803373ffffffffffffffffffffffffffffffffffffffff1673ffffffffffffffffffffffffffffffffffffffff16815260200190815260200160002060010160049054906101000a900460ff166000803373ffffffffffffffffffffffffffffffffffffffff1673ffffffffffffffffffffffffffffffffffffffff16815260200190815260200160002060010160059054906101000a900460ff16915091509091565b6000444260016040516020018084815260200183815260200182805480156114cc57602002820191906000526020600020905b8160009054906101000a900473ffffffffffffffffffffffffffffffffffffffff1673ffffffffffffffffffffffffffffffffffffffff1681526020019060010190808311611482575b505093505050506040516020818303038152906040528051906020012060001c905090565b828054600181600116156101000203166002900490600052602060002090601f016020900481019282601f1061153257805160ff1916838001178555611560565b82800160010185558215611560579182015b8281111561155f578251825591602001919060010190611544565b5b50905061156d91906115f1565b5090565b828054600181600116156101000203166002900490600052602060002090601f016020900481019282601f106115b257805160ff19168380011785556115e0565b828001600101855582156115e0579182015b828111156115df5782518255916020019190600101906115c4565b5b5090506115ed91906115f1565b5090565b61161391905b8082111561160f5760008160009055506001016115f7565b5090565b9056fe596f7520617265206e6f7420746865206f776e6572206f66207468697320636f6e7472616374a265627a7a7231582040a32d38b1b238142a3d673cc24dc9e9ff2c81d517b0e2878a356bce8c57692064736f6c63430005100032",
    "source": "pragma solidity 0.5.16;\n\ncontract fightGame {\n    mapping (address => Personnage) private _players;\n    struct Personnage {\n        string name;\n        uint8 level;\n        uint8 exp;\n        uint8 strength;\n        uint8 pv;\n        uint8 wins;\n        uint8 loses;\n        bool exist;\n    }\n\n    address[] public players_adresses;\n    \n    address public owner;\n\n    constructor() public {\n        owner = msg.sender;\n    }\n//\n    function random() private returns (uint256) {\n        return\n            uint256(\n                keccak256(abi.encodePacked(block.difficulty, now, players_adresses))\n            );\n    }\n\n    // CreatePlayer set new player \n    function CreatePlayer(string memory _name) public {\n        //require(_players[msg.sender].exist == true, \"You already have a personnage\");\n        _players[msg.sender] = Personnage(_name, 1, 0, 0, 100, 0, 0,true);\n        players_adresses.push(msg.sender);\n    }\n    \n    // GetPlayer return player spec\n    function GetPlayer()public view returns (string memory name,uint8 level, uint8 exp, uint8 strength,uint8 pv){\n        return (_players[msg.sender].name,_players[msg.sender].level,_players[msg.sender].exp,_players[msg.sender].strength,_players[msg.sender].pv);\n    } \n    // GetPlayerStats return player stats\n    function GetPlayerStats() public view returns(uint8 wins, uint8 loses){\n        return (_players[msg.sender].wins,_players[msg.sender].loses);\n    }\n    // GetAllPlayers return list of players addresses\n    function GetAllPlayers()public view returns(address[] memory){\n        return players_adresses;\n    }\n    // Fight return winner\n   function Fight() public returns(string memory _name, uint exp, uint level){\n        Personnage storage winner = _players[msg.sender];\n        require(players_adresses.length > 1, \"Il n'y a pas assez de joueur\");\n        uint256 rand = random() % players_adresses.length;\n        Personnage storage loser =  _players[players_adresses[rand]];\n        require(players_adresses[rand] != msg.sender, \"Aucun joueur trouvé\");\n        \n        if(_players[players_adresses[rand]].strength >= _players[msg.sender].strength) \n        {\n            winner = _players[players_adresses[rand]];\n            loser = _players[msg.sender];\n        } else {\n            uint256 randWinner = random() % 2;\n            winner = _players[players_adresses[randWinner]];\n            loser = _players[msg.sender];\n        }\n        winner.exp = winner.exp + 5;\n        if(winner.exp >= 10*winner.level) {\n            winner.level = winner.level+1;\n            winner.strength = winner.strength+1;\n            winner.exp = 0;\n        }\n        winner.wins = winner.wins+1;\n        loser.loses = loser.loses+1;\n        return (winner.name, winner.exp, winner.level);\n    }\n    // ResetPlayer reset player Personnage\n    function ResetPlayer(address a) public restricted returns(bool){\n        _players[a].name = \"\";\n        _players[a].level = 0;\n        _players[a].exp = 0;\n        _players[a].strength = 0;\n        _players[a].pv = 0;\n        _players[a].wins = 0;\n        _players[a].loses = 0;\n        _players[a].exist= false;\n        return true;\n    }\n    modifier restricted() {\n        require(\n            msg.sender == owner,\n            \"You are not the owner of this contract\"\n        );\n        _;\n    }\n}\n",
    "sourcePath": "/home/vivien/project/td-eth-react/contracts/fightGame.sol",
    "compiler": {
        "name": "solc",
        "version": "0.5.16+commit.9c3226ce.Emscripten.clang"
    },
    "schemaVersion": "3.0.23",
    "updatedAt": "2020-03-25T15:43:48.606Z",
    "networkType": "ethereum",
    "devdoc": {
        "methods": {}
    },
    "userdoc": {
        "methods": {}
    }
}