{
  "contractName": "HelloWorld",
  "abi": [
    {
      "constant": true,
      "inputs": [],
      "name": "speak",
      "outputs": [
        {
          "internalType": "string",
          "name": "",
          "type": "string"
        }
      ],
      "payable": false,
      "stateMutability": "pure",
      "type": "function"
    }
  ],
  "bytecode": "0x608060405234801561001057600080fd5b5061011d806100206000396000f3fe6080604052348015600f57600080fd5b506004361060285760003560e01c806350d8531514602d575b600080fd5b603360ab565b6040518080602001828103825283818151815260200191508051906020019080838360005b8381101560715780820151818401526020810190506058565b50505050905090810190601f168015609d5780820380516001836020036101000a031916815260200191505b509250505060405180910390f35b60606040518060400160405280600a81526020017f48656c6c6f20455347490000000000000000000000000000000000000000000081525090509056fea265627a7a72315820508ddf56f64e170cb34e90607c5d52110a0aff5bd90dcd8087e5e1bb42f7985e64736f6c63430005100032",
  "source": "pragma solidity 0.5.16;\n\ncontract HelloWorld {\n    function speak() public pure returns (string memory) {\n        return \"Hello ESGI\";\n    }\n}\n",
  "sourcePath": "/home/vivien/project/td-esgi/TP2-Dapp/contracts/HelloWorld.sol",
  "compiler": {
    "name": "solc",
    "version": "0.5.16+commit.9c3226ce.Emscripten.clang"
  },
  "schemaVersion": "3.0.23",
  "updatedAt": "2020-03-25T09:31:30.502Z",
  "networkType": "ethereum",
  "devdoc": {
    "methods": {}
  },
  "userdoc": {
    "methods": {}
  }
}